{
  "contractName": "NodePool",
  "abi": [
    {
      "constant": true,
      "inputs": [
        {
          "name": "",
          "type": "bytes32"
        },
        {
          "name": "",
          "type": "address"
        },
        {
          "name": "",
          "type": "address"
        }
      ],
      "name": "collectedFees",
      "outputs": [
        {
          "name": "",
          "type": "uint256"
        }
      ],
      "payable": false,
      "stateMutability": "view",
      "type": "function"
    },
    {
      "constant": true,
      "inputs": [
        {
          "name": "",
          "type": "bytes32"
        },
        {
          "name": "",
          "type": "address"
        }
      ],
      "name": "votingRecord",
      "outputs": [
        {
          "name": "",
          "type": "bool"
        }
      ],
      "payable": false,
      "stateMutability": "view",
      "type": "function"
    },
    {
      "constant": true,
      "inputs": [],
      "name": "rewardVault",
      "outputs": [
        {
          "name": "",
          "type": "address"
        }
      ],
      "payable": false,
      "stateMutability": "view",
      "type": "function"
    },
    {
      "constant": true,
      "inputs": [
        {
          "name": "",
          "type": "bytes32"
        },
        {
          "name": "",
          "type": "address"
        }
      ],
      "name": "amountFunded",
      "outputs": [
        {
          "name": "",
          "type": "uint256"
        }
      ],
      "payable": false,
      "stateMutability": "view",
      "type": "function"
    },
    {
      "constant": true,
      "inputs": [
        {
          "name": "",
          "type": "bytes32"
        }
      ],
      "name": "poolDetails",
      "outputs": [
        {
          "name": "proposer",
          "type": "address"
        },
        {
          "name": "name",
          "type": "string"
        },
        {
          "name": "operationFees",
          "type": "uint8"
        },
        {
          "name": "minimumDuration",
          "type": "uint256"
        },
        {
          "name": "totalAmountFunded",
          "type": "uint256"
        },
        {
          "name": "deregistrationVotes",
          "type": "uint256"
        },
        {
          "name": "darknodeID",
          "type": "address"
        },
        {
          "name": "registeredAt",
          "type": "uint256"
        }
      ],
      "payable": false,
      "stateMutability": "view",
      "type": "function"
    },
    {
      "constant": true,
      "inputs": [],
      "name": "ren",
      "outputs": [
        {
          "name": "",
          "type": "address"
        }
      ],
      "payable": false,
      "stateMutability": "view",
      "type": "function"
    },
    {
      "constant": true,
      "inputs": [],
      "name": "VOTES_FOR_DEREGISTRATION",
      "outputs": [
        {
          "name": "",
          "type": "uint8"
        }
      ],
      "payable": false,
      "stateMutability": "view",
      "type": "function"
    },
    {
      "constant": true,
      "inputs": [
        {
          "name": "",
          "type": "uint256"
        }
      ],
      "name": "pools",
      "outputs": [
        {
          "name": "",
          "type": "bytes32"
        }
      ],
      "payable": false,
      "stateMutability": "view",
      "type": "function"
    },
    {
      "constant": true,
      "inputs": [],
      "name": "ETHEREUM",
      "outputs": [
        {
          "name": "",
          "type": "address"
        }
      ],
      "payable": false,
      "stateMutability": "view",
      "type": "function"
    },
    {
      "constant": true,
      "inputs": [],
      "name": "dnr",
      "outputs": [
        {
          "name": "",
          "type": "address"
        }
      ],
      "payable": false,
      "stateMutability": "view",
      "type": "function"
    },
    {
      "inputs": [
        {
          "name": "_renAddress",
          "type": "address"
        },
        {
          "name": "_dnrAddress",
          "type": "address"
        },
        {
          "name": "_rewardVaultAddress",
          "type": "address"
        }
      ],
      "payable": false,
      "stateMutability": "nonpayable",
      "type": "constructor"
    },
    {
      "constant": false,
      "inputs": [
        {
          "name": "_poolID",
          "type": "bytes32"
        },
        {
          "name": "_name",
          "type": "string"
        },
        {
          "name": "_operationFees",
          "type": "uint8"
        },
        {
          "name": "_minimumDuration",
          "type": "uint256"
        },
        {
          "name": "_amount",
          "type": "uint256"
        }
      ],
      "name": "proposePool",
      "outputs": [],
      "payable": false,
      "stateMutability": "nonpayable",
      "type": "function"
    },
    {
      "constant": false,
      "inputs": [
        {
          "name": "_poolID",
          "type": "bytes32"
        },
        {
          "name": "_amount",
          "type": "uint256"
        }
      ],
      "name": "fundPool",
      "outputs": [],
      "payable": false,
      "stateMutability": "nonpayable",
      "type": "function"
    },
    {
      "constant": false,
      "inputs": [
        {
          "name": "_poolID",
          "type": "bytes32"
        },
        {
          "name": "_amount",
          "type": "uint256"
        }
      ],
      "name": "withdrawFunds",
      "outputs": [],
      "payable": false,
      "stateMutability": "nonpayable",
      "type": "function"
    },
    {
      "constant": false,
      "inputs": [
        {
          "name": "_poolID",
          "type": "bytes32"
        },
        {
          "name": "_darknodeID",
          "type": "address"
        },
        {
          "name": "_publicKey",
          "type": "bytes"
        }
      ],
      "name": "registerPool",
      "outputs": [],
      "payable": false,
      "stateMutability": "nonpayable",
      "type": "function"
    },
    {
      "constant": true,
      "inputs": [
        {
          "name": "_poolID",
          "type": "bytes32"
        }
      ],
      "name": "poolStatus",
      "outputs": [
        {
          "name": "",
          "type": "uint8"
        }
      ],
      "payable": false,
      "stateMutability": "view",
      "type": "function"
    },
    {
      "constant": false,
      "inputs": [
        {
          "name": "_poolID",
          "type": "bytes32"
        }
      ],
      "name": "voteToDeregister",
      "outputs": [],
      "payable": false,
      "stateMutability": "nonpayable",
      "type": "function"
    },
    {
      "constant": true,
      "inputs": [],
      "name": "minimumBond",
      "outputs": [
        {
          "name": "",
          "type": "uint256"
        }
      ],
      "payable": false,
      "stateMutability": "view",
      "type": "function"
    },
    {
      "constant": true,
      "inputs": [
        {
          "name": "_poolID",
          "type": "bytes32"
        },
        {
          "name": "_token",
          "type": "address"
        }
      ],
      "name": "getTotalFees",
      "outputs": [
        {
          "name": "",
          "type": "uint256"
        }
      ],
      "payable": false,
      "stateMutability": "view",
      "type": "function"
    },
    {
      "constant": true,
      "inputs": [
        {
          "name": "_poolID",
          "type": "bytes32"
        },
        {
          "name": "_token",
          "type": "address"
        },
        {
          "name": "_withdrawer",
          "type": "address"
        }
      ],
      "name": "feeShare",
      "outputs": [
        {
          "name": "",
          "type": "uint256"
        }
      ],
      "payable": false,
      "stateMutability": "view",
      "type": "function"
    },
    {
      "constant": false,
      "inputs": [
        {
          "name": "_poolID",
          "type": "bytes32"
        },
        {
          "name": "_token",
          "type": "address"
        }
      ],
      "name": "withdrawFees",
      "outputs": [],
      "payable": false,
      "stateMutability": "nonpayable",
      "type": "function"
    }
  ],
  "bytecode": "0x608060405234801561001057600080fd5b506040516060806134dd83398101806040528101908080519060200190929190805190602001909291908051906020019092919050505082600660006101000a81548173ffffffffffffffffffffffffffffffffffffffff021916908373ffffffffffffffffffffffffffffffffffffffff16021790555081600760006101000a81548173ffffffffffffffffffffffffffffffffffffffff021916908373ffffffffffffffffffffffffffffffffffffffff16021790555080600860006101000a81548173ffffffffffffffffffffffffffffffffffffffff021916908373ffffffffffffffffffffffffffffffffffffffff1602179055505050506133c18061011c6000396000f300608060405260043610610112576000357c0100000000000000000000000000000000000000000000000000000000900463ffffffff168063066ada901461011757806309dc75ec1461016a5780632ebe4575146101ef5780633a2c67771461025857806342fa7ee7146102af5780635042808914610314578063505e567b1461034f5780636282be6e146103b457806369e4c7c4146104ed5780638a9b40671461057257806392e9704e146105c957806395cbef9f146106325780639f48203614610663578063aa7517e1146106b4578063ac4afa38146106df578063dfc0a1ce14610728578063ef68de4914610792578063f7cdf47c146107cd578063f90a7fd214610824578063ffe728031461087b575b600080fd5b34801561012357600080fd5b5061014660048036038101908080356000191690602001909291905050506108ac565b6040518082600581111561015657fe5b60ff16815260200191505060405180910390f35b34801561017657600080fd5b506101d96004803603810190808035600019169060200190929190803573ffffffffffffffffffffffffffffffffffffffff169060200190929190803573ffffffffffffffffffffffffffffffffffffffff169060200190929190505050610c76565b6040518082815260200191505060405180910390f35b3480156101fb57600080fd5b5061023e6004803603810190808035600019169060200190929190803573ffffffffffffffffffffffffffffffffffffffff169060200190929190505050610ca8565b604051808215151515815260200191505060405180910390f35b34801561026457600080fd5b5061026d610cd7565b604051808273ffffffffffffffffffffffffffffffffffffffff1673ffffffffffffffffffffffffffffffffffffffff16815260200191505060405180910390f35b3480156102bb57600080fd5b506102fe6004803603810190808035600019169060200190929190803573ffffffffffffffffffffffffffffffffffffffff169060200190929190505050610cfd565b6040518082815260200191505060405180910390f35b34801561032057600080fd5b5061034d600480360381019080803560001916906020019092919080359060200190929190505050610edb565b005b34801561035b57600080fd5b5061039e6004803603810190808035600019169060200190929190803573ffffffffffffffffffffffffffffffffffffffff1690602001909291905050506112f4565b6040518082815260200191505060405180910390f35b3480156103c057600080fd5b506103e36004803603810190808035600019169060200190929190505050611319565b604051808973ffffffffffffffffffffffffffffffffffffffff1673ffffffffffffffffffffffffffffffffffffffff168152602001806020018860ff1660ff1681526020018781526020018681526020018581526020018473ffffffffffffffffffffffffffffffffffffffff1673ffffffffffffffffffffffffffffffffffffffff168152602001838152602001828103825289818151815260200191508051906020019080838360005b838110156104ab578082015181840152602081019050610490565b50505050905090810190601f1680156104d85780820380516001836020036101000a031916815260200191505b50995050505050505050505060405180910390f35b3480156104f957600080fd5b5061055c6004803603810190808035600019169060200190929190803573ffffffffffffffffffffffffffffffffffffffff169060200190929190803573ffffffffffffffffffffffffffffffffffffffff169060200190929190505050611446565b6040518082815260200191505060405180910390f35b34801561057e57600080fd5b5061058761173e565b604051808273ffffffffffffffffffffffffffffffffffffffff1673ffffffffffffffffffffffffffffffffffffffff16815260200191505060405180910390f35b3480156105d557600080fd5b506106306004803603810190808035600019169060200190929190803573ffffffffffffffffffffffffffffffffffffffff169060200190929190803590602001908201803590602001919091929391929390505050611764565b005b34801561063e57600080fd5b50610647611c20565b604051808260ff1660ff16815260200191505060405180910390f35b34801561066f57600080fd5b506106b26004803603810190808035600019169060200190929190803573ffffffffffffffffffffffffffffffffffffffff169060200190929190505050611c25565b005b3480156106c057600080fd5b506106c96122b4565b6040518082815260200191505060405180910390f35b3480156106eb57600080fd5b5061070a6004803603810190808035906020019092919050505061237c565b60405180826000191660001916815260200191505060405180910390f35b34801561073457600080fd5b506107906004803603810190808035600019169060200190929190803590602001908201803590602001919091929391929390803560ff169060200190929190803590602001909291908035906020019092919050505061239f565b005b34801561079e57600080fd5b506107cb6004803603810190808035600019169060200190929190803590602001909291905050506126dd565b005b3480156107d957600080fd5b506107e2612d74565b604051808273ffffffffffffffffffffffffffffffffffffffff1673ffffffffffffffffffffffffffffffffffffffff16815260200191505060405180910390f35b34801561083057600080fd5b50610839612d8c565b604051808273ffffffffffffffffffffffffffffffffffffffff1673ffffffffffffffffffffffffffffffffffffffff16815260200191505060405180910390f35b34801561088757600080fd5b506108aa6004803603810190808035600019169060200190929190505050612db2565b005b600080600080600060016000876000191660001916815260200190815260200160002060000160009054906101000a900473ffffffffffffffffffffffffffffffffffffffff1673ffffffffffffffffffffffffffffffffffffffff1614156109185760009350610c6e565b600060016000876000191660001916815260200190815260200160002060070154141561097c576109476122b4565b6001600087600019166000191681526020019081526020016000206004015410610972576002610975565b60015b9350610c6e565b600760009054906101000a900473ffffffffffffffffffffffffffffffffffffffff1673ffffffffffffffffffffffffffffffffffffffff1663040fa05160016000886000191660001916815260200190815260200160002060060160009054906101000a900473ffffffffffffffffffffffffffffffffffffffff166040518263ffffffff167c0100000000000000000000000000000000000000000000000000000000028152600401808273ffffffffffffffffffffffffffffffffffffffff1673ffffffffffffffffffffffffffffffffffffffff168152602001915050602060405180830381600087803b158015610a7757600080fd5b505af1158015610a8b573d6000803e3d6000fd5b505050506040513d6020811015610aa157600080fd5b81019080805190602001909291905050509250600760009054906101000a900473ffffffffffffffffffffffffffffffffffffffff1673ffffffffffffffffffffffffffffffffffffffff1663e187892560016000886000191660001916815260200190815260200160002060060160009054906101000a900473ffffffffffffffffffffffffffffffffffffffff166040518263ffffffff167c0100000000000000000000000000000000000000000000000000000000028152600401808273ffffffffffffffffffffffffffffffffffffffff1673ffffffffffffffffffffffffffffffffffffffff168152602001915050602060405180830381600087803b158015610baf57600080fd5b505af1158015610bc3573d6000803e3d6000fd5b505050506040513d6020811015610bd957600080fd5b8101908080519060200190929190505050915060016000866000191660001916815260200190815260200160002060030154600160008760001916600019168152602001908152602001600020600701540142101590508280610c435750818015610c42575080155b5b15610c515760039350610c6e565b818015610c5b5750805b15610c695760049350610c6e565b600593505b505050919050565b600360205282600052604060002060205281600052604060002060205280600052604060002060009250925050505481565b60056020528160005260406000206020528060005260406000206000915091509054906101000a900460ff1681565b600860009054906101000a900473ffffffffffffffffffffffffffffffffffffffff1681565b60008060008060016000876000191660001916815260200190815260200160002060060160009054906101000a900473ffffffffffffffffffffffffffffffffffffffff169250600860009054906101000a900473ffffffffffffffffffffffffffffffffffffffff1673ffffffffffffffffffffffffffffffffffffffff166370324b7784876040518363ffffffff167c0100000000000000000000000000000000000000000000000000000000028152600401808373ffffffffffffffffffffffffffffffffffffffff1673ffffffffffffffffffffffffffffffffffffffff1681526020018273ffffffffffffffffffffffffffffffffffffffff1673ffffffffffffffffffffffffffffffffffffffff16815260200192505050602060405180830381600087803b158015610e3557600080fd5b505af1158015610e49573d6000803e3d6000fd5b505050506040513d6020811015610e5f57600080fd5b8101908080519060200190929190505050915060026000876000191660001916815260200190815260200160002060008673ffffffffffffffffffffffffffffffffffffffff1673ffffffffffffffffffffffffffffffffffffffff168152602001908152602001600020549050808201935050505092915050565b6000806000846001806005811115610eef57fe5b610ef8836108ac565b6005811115610f0357fe5b141515610f78576040517f08c379a00000000000000000000000000000000000000000000000000000000081526004018080602001828103825260138152602001807f696e76616c696420706f6f6c207374617475730000000000000000000000000081525060200191505060405180910390fd5b33945060016000886000191660001916815260200190815260200160002060040154610fa26122b4565b039350610faf848761322d565b9250600083111515611029576040517f08c379a00000000000000000000000000000000000000000000000000000000081526004018080602001828103825260148152602001807f616c72656164792066756c6c792066756e64656400000000000000000000000081525060200191505060405180910390fd5b600660009054906101000a900473ffffffffffffffffffffffffffffffffffffffff1673ffffffffffffffffffffffffffffffffffffffff166323b872dd8630866040518463ffffffff167c0100000000000000000000000000000000000000000000000000000000028152600401808473ffffffffffffffffffffffffffffffffffffffff1673ffffffffffffffffffffffffffffffffffffffff1681526020018373ffffffffffffffffffffffffffffffffffffffff1673ffffffffffffffffffffffffffffffffffffffff1681526020018281526020019350505050602060405180830381600087803b15801561112257600080fd5b505af1158015611136573d6000803e3d6000fd5b505050506040513d602081101561114c57600080fd5b810190808051906020019092919050505015156111d1576040517f08c379a00000000000000000000000000000000000000000000000000000000081526004018080602001828103825260158152602001807f616d6f756e742074726173666572206661696c6564000000000000000000000081525060200191505060405180910390fd5b61120283600160008a600019166000191681526020019081526020016000206004015461324690919063ffffffff16565b6001600089600019166000191681526020019081526020016000206004018190555061128f83600460008a6000191660001916815260200190815260200160002060008873ffffffffffffffffffffffffffffffffffffffff1673ffffffffffffffffffffffffffffffffffffffff1681526020019081526020016000205461324690919063ffffffff16565b60046000896000191660001916815260200190815260200160002060008773ffffffffffffffffffffffffffffffffffffffff1673ffffffffffffffffffffffffffffffffffffffff1681526020019081526020016000208190555050505050505050565b6004602052816000526040600020602052806000526040600020600091509150505481565b60016020528060005260406000206000915090508060000160009054906101000a900473ffffffffffffffffffffffffffffffffffffffff1690806001018054600181600116156101000203166002900480601f0160208091040260200160405190810160405280929190818152602001828054600181600116156101000203166002900480156113eb5780601f106113c0576101008083540402835291602001916113eb565b820191906000526020600020905b8154815290600101906020018083116113ce57829003601f168201915b5050505050908060020160009054906101000a900460ff16908060030154908060040154908060050154908060060160009054906101000a900473ffffffffffffffffffffffffffffffffffffffff16908060070154905088565b600080600080600080600160008a60001916600019168152602001908152602001600020600401546064600460008c6000191660001916815260200190815260200160002060008a73ffffffffffffffffffffffffffffffffffffffff1673ffffffffffffffffffffffffffffffffffffffff16815260200190815260200160002054028115156114d357fe5b049450600160008a6000191660001916815260200190815260200160002060000160009054906101000a900473ffffffffffffffffffffffffffffffffffffffff1673ffffffffffffffffffffffffffffffffffffffff168773ffffffffffffffffffffffffffffffffffffffff16141561163557600160008a60001916600019168152602001908152602001600020600401546064600460008c6000191660001916815260200190815260200160002060008a73ffffffffffffffffffffffffffffffffffffffff1673ffffffffffffffffffffffffffffffffffffffff16815260200190815260200160002054600160008d600019166000191681526020019081526020016000206004015403028115156115ec57fe5b0493506064600160008b6000191660001916815260200190815260200160002060020160009054906101000a900460ff1660ff16850281151561162b57fe5b0485019450611678565b6064600160008b6000191660001916815260200190815260200160002060020160009054906101000a900460ff1660640360ff16860281151561167457fe5b0494505b6064856116858b8b610cfd565b0281151561168f57fe5b049250600360008a6000191660001916815260200190815260200160002060008973ffffffffffffffffffffffffffffffffffffffff1673ffffffffffffffffffffffffffffffffffffffff16815260200190815260200160002060008873ffffffffffffffffffffffffffffffffffffffff1673ffffffffffffffffffffffffffffffffffffffff168152602001908152602001600020549150818303905080955050505050509392505050565b600660009054906101000a900473ffffffffffffffffffffffffffffffffffffffff1681565b6000843373ffffffffffffffffffffffffffffffffffffffff1660016000836000191660001916815260200190815260200160002060000160009054906101000a900473ffffffffffffffffffffffffffffffffffffffff1673ffffffffffffffffffffffffffffffffffffffff16141515611848576040517f08c379a000000000000000000000000000000000000000000000000000000000815260040180806020018281038252601b8152602001807f6f6e6c79207065726d697474656420666f722070726f706f736572000000000081525060200191505060405180910390fd5b85600280600581111561185757fe5b611860836108ac565b600581111561186b57fe5b1415156118e0576040517f08c379a00000000000000000000000000000000000000000000000000000000081526004018080602001828103825260138152602001807f696e76616c696420706f6f6c207374617475730000000000000000000000000081525060200191505060405180910390fd5b600160008960001916600019168152602001908152602001600020600401549350600660009054906101000a900473ffffffffffffffffffffffffffffffffffffffff1673ffffffffffffffffffffffffffffffffffffffff1663095ea7b3600760009054906101000a900473ffffffffffffffffffffffffffffffffffffffff16866040518363ffffffff167c0100000000000000000000000000000000000000000000000000000000028152600401808373ffffffffffffffffffffffffffffffffffffffff1673ffffffffffffffffffffffffffffffffffffffff16815260200182815260200192505050602060405180830381600087803b1580156119e857600080fd5b505af11580156119fc573d6000803e3d6000fd5b505050506040513d6020811015611a1257600080fd5b81019080805190602001909291905050501515611a97576040517f08c379a00000000000000000000000000000000000000000000000000000000081526004018080602001828103825260148152602001807f626f6e6420617070726f76616c206661696c656400000000000000000000000081525060200191505060405180910390fd5b600760009054906101000a900473ffffffffffffffffffffffffffffffffffffffff1673ffffffffffffffffffffffffffffffffffffffff16630aeb6b40888888886040518563ffffffff167c0100000000000000000000000000000000000000000000000000000000028152600401808573ffffffffffffffffffffffffffffffffffffffff1673ffffffffffffffffffffffffffffffffffffffff168152602001806020018381526020018281038252858582818152602001925080828437820191505095505050505050600060405180830381600087803b158015611b7e57600080fd5b505af1158015611b92573d6000803e3d6000fd5b5050505086600160008a6000191660001916815260200190815260200160002060060160006101000a81548173ffffffffffffffffffffffffffffffffffffffff021916908373ffffffffffffffffffffffffffffffffffffffff16021790555042600160008a60001916600019168152602001908152602001600020600701819055505050505050505050565b604b81565b60008060008060016000876000191660001916815260200190815260200160002060060160009054906101000a900473ffffffffffffffffffffffffffffffffffffffff169350600860009054906101000a900473ffffffffffffffffffffffffffffffffffffffff1673ffffffffffffffffffffffffffffffffffffffff166370324b7785876040518363ffffffff167c0100000000000000000000000000000000000000000000000000000000028152600401808373ffffffffffffffffffffffffffffffffffffffff1673ffffffffffffffffffffffffffffffffffffffff1681526020018273ffffffffffffffffffffffffffffffffffffffff1673ffffffffffffffffffffffffffffffffffffffff16815260200192505050602060405180830381600087803b158015611d5d57600080fd5b505af1158015611d71573d6000803e3d6000fd5b505050506040513d6020811015611d8757600080fd5b810190808051906020019092919050505092506000831115611f7457600860009054906101000a900473ffffffffffffffffffffffffffffffffffffffff1673ffffffffffffffffffffffffffffffffffffffff1663f940e38585876040518363ffffffff167c0100000000000000000000000000000000000000000000000000000000028152600401808373ffffffffffffffffffffffffffffffffffffffff1673ffffffffffffffffffffffffffffffffffffffff1681526020018273ffffffffffffffffffffffffffffffffffffffff1673ffffffffffffffffffffffffffffffffffffffff16815260200192505050600060405180830381600087803b158015611e9457600080fd5b505af1158015611ea8573d6000803e3d6000fd5b50505050611f178360026000896000191660001916815260200190815260200160002060008873ffffffffffffffffffffffffffffffffffffffff1673ffffffffffffffffffffffffffffffffffffffff1681526020019081526020016000205461324690919063ffffffff16565b60026000886000191660001916815260200190815260200160002060008773ffffffffffffffffffffffffffffffffffffffff1673ffffffffffffffffffffffffffffffffffffffff168152602001908152602001600020819055505b339150611f82868684611446565b905061202c8160036000896000191660001916815260200190815260200160002060008873ffffffffffffffffffffffffffffffffffffffff1673ffffffffffffffffffffffffffffffffffffffff16815260200190815260200160002060008573ffffffffffffffffffffffffffffffffffffffff1673ffffffffffffffffffffffffffffffffffffffff1681526020019081526020016000205461324690919063ffffffff16565b60036000886000191660001916815260200190815260200160002060008773ffffffffffffffffffffffffffffffffffffffff1673ffffffffffffffffffffffffffffffffffffffff16815260200190815260200160002060008473ffffffffffffffffffffffffffffffffffffffff1673ffffffffffffffffffffffffffffffffffffffff1681526020019081526020016000208190555073eeeeeeeeeeeeeeeeeeeeeeeeeeeeeeeeeeeeeeee73ffffffffffffffffffffffffffffffffffffffff168573ffffffffffffffffffffffffffffffffffffffff161415612159578173ffffffffffffffffffffffffffffffffffffffff166108fc829081150290604051600060405180830381858888f19350505050158015612153573d6000803e3d6000fd5b506122ac565b8473ffffffffffffffffffffffffffffffffffffffff1663a9059cbb83836040518363ffffffff167c0100000000000000000000000000000000000000000000000000000000028152600401808373ffffffffffffffffffffffffffffffffffffffff1673ffffffffffffffffffffffffffffffffffffffff16815260200182815260200192505050602060405180830381600087803b1580156121fc57600080fd5b505af1158015612210573d6000803e3d6000fd5b505050506040513d602081101561222657600080fd5b810190808051906020019092919050505015156122ab576040517f08c379a00000000000000000000000000000000000000000000000000000000081526004018080602001828103825260158152602001807f746f6b656e207472616e73666572206661696c6564000000000000000000000081525060200191505060405180910390fd5b5b505050505050565b6000600760009054906101000a900473ffffffffffffffffffffffffffffffffffffffff1673ffffffffffffffffffffffffffffffffffffffff1663aa7517e16040518163ffffffff167c0100000000000000000000000000000000000000000000000000000000028152600401602060405180830381600087803b15801561233c57600080fd5b505af1158015612350573d6000803e3d6000fd5b505050506040513d602081101561236657600080fd5b8101908080519060200190929190505050905090565b60008181548110151561238b57fe5b906000526020600020016000915090505481565b6123a761327b565b8660008060058111156123b657fe5b6123bf836108ac565b60058111156123ca57fe5b14151561243f576040517f08c379a00000000000000000000000000000000000000000000000000000000081526004018080602001828103825260138152602001807f696e76616c696420706f6f6c207374617475730000000000000000000000000081525060200191505060405180910390fd5b60648660ff16111515156124e1576040517f08c379a00000000000000000000000000000000000000000000000000000000081526004018080602001828103825260238152602001807f6f7065726174696f6e2066656573206d75737420626520612070657263656e7481526020017f616765000000000000000000000000000000000000000000000000000000000081525060400191505060405180910390fd5b610100604051908101604052803373ffffffffffffffffffffffffffffffffffffffff16815260200189898080601f01602080910402602001604051908101604052809392919081815260200183838082843782019150505050505081526020018760ff1681526020018681526020016000815260200160008152602001600073ffffffffffffffffffffffffffffffffffffffff16815260200160008152509250600089908060018154018082558091505090600182039060005260206000200160009091929091909150906000191690555082600160008b6000191660001916815260200190815260200160002060008201518160000160006101000a81548173ffffffffffffffffffffffffffffffffffffffff021916908373ffffffffffffffffffffffffffffffffffffffff16021790555060208201518160010190805190602001906126349291906132f0565b5060408201518160020160006101000a81548160ff021916908360ff160217905550606082015181600301556080820151816004015560a0820151816005015560c08201518160060160006101000a81548173ffffffffffffffffffffffffffffffffffffffff021916908373ffffffffffffffffffffffffffffffffffffffff16021790555060e082015181600701559050506126d28985610edb565b505050505050505050565b600080833373ffffffffffffffffffffffffffffffffffffffff1660016000836000191660001916815260200190815260200160002060000160009054906101000a900473ffffffffffffffffffffffffffffffffffffffff1673ffffffffffffffffffffffffffffffffffffffff16141515156127c3576040517f08c379a000000000000000000000000000000000000000000000000000000000815260040180806020018281038252601a8152602001807f6e6f74207065726d697474656420666f722070726f706f73657200000000000081525060200191505060405180910390fd5b3392506127cf856108ac565b9150600160058111156127de57fe5b8260058111156127ea57fe5b148061280c5750600260058111156127fe57fe5b82600581111561280a57fe5b145b156128f85760016000866000191660001916815260200190815260200160002060000160009054906101000a900473ffffffffffffffffffffffffffffffffffffffff1673ffffffffffffffffffffffffffffffffffffffff168373ffffffffffffffffffffffffffffffffffffffff16141515156128f3576040517f08c379a00000000000000000000000000000000000000000000000000000000081526004018080602001828103825260178152602001807f70726f706f7365722063616e277420776974686472617700000000000000000081525060200191505060405180910390fd5b612adf565b6004600581111561290557fe5b82600581111561291157fe5b1415612a2f57600760009054906101000a900473ffffffffffffffffffffffffffffffffffffffff1673ffffffffffffffffffffffffffffffffffffffff166384ac33ec60016000886000191660001916815260200190815260200160002060060160009054906101000a900473ffffffffffffffffffffffffffffffffffffffff166040518263ffffffff167c0100000000000000000000000000000000000000000000000000000000028152600401808273ffffffffffffffffffffffffffffffffffffffff1673ffffffffffffffffffffffffffffffffffffffff168152602001915050600060405180830381600087803b158015612a1257600080fd5b505af1158015612a26573d6000803e3d6000fd5b50505050612ade565b60036005811115612a3c57fe5b826005811115612a4857fe5b1480612a6a575060006005811115612a5c57fe5b826005811115612a6857fe5b145b15612add576040517f08c379a000000000000000000000000000000000000000000000000000000000815260040180806020018281038252600e8152602001807f696e76616c69642073746174757300000000000000000000000000000000000081525060200191505060405180910390fd5b5b5b612b10846001600088600019166000191681526020019081526020016000206004015461326290919063ffffffff16565b60016000876000191660001916815260200190815260200160002060040181905550612b9d8460046000886000191660001916815260200190815260200160002060008673ffffffffffffffffffffffffffffffffffffffff1673ffffffffffffffffffffffffffffffffffffffff1681526020019081526020016000205461326290919063ffffffff16565b60046000876000191660001916815260200190815260200160002060008573ffffffffffffffffffffffffffffffffffffffff1673ffffffffffffffffffffffffffffffffffffffff16815260200190815260200160002081905550600660009054906101000a900473ffffffffffffffffffffffffffffffffffffffff1673ffffffffffffffffffffffffffffffffffffffff1663a9059cbb84866040518363ffffffff167c0100000000000000000000000000000000000000000000000000000000028152600401808373ffffffffffffffffffffffffffffffffffffffff1673ffffffffffffffffffffffffffffffffffffffff16815260200182815260200192505050602060405180830381600087803b158015612cbe57600080fd5b505af1158015612cd2573d6000803e3d6000fd5b505050506040513d6020811015612ce857600080fd5b81019080805190602001909291905050501515612d6d576040517f08c379a00000000000000000000000000000000000000000000000000000000081526004018080602001828103825260158152602001807f616d6f756e742074726173666572206661696c6564000000000000000000000081525060200191505060405180910390fd5b5050505050565b73eeeeeeeeeeeeeeeeeeeeeeeeeeeeeeeeeeeeeeee81565b600760009054906101000a900473ffffffffffffffffffffffffffffffffffffffff1681565b600080826003806005811115612dc457fe5b612dcd836108ac565b6005811115612dd857fe5b141515612e4d576040517f08c379a00000000000000000000000000000000000000000000000000000000081526004018080602001828103825260138152602001807f696e76616c696420706f6f6c207374617475730000000000000000000000000081525060200191505060405180910390fd5b60056000866000191660001916815260200190815260200160002060003373ffffffffffffffffffffffffffffffffffffffff1673ffffffffffffffffffffffffffffffffffffffff16815260200190815260200160002060009054906101000a900460ff16151515612f28576040517f08c379a000000000000000000000000000000000000000000000000000000000815260040180806020018281038252600d8152602001807f616c726561647920766f7465640000000000000000000000000000000000000081525060200191505060405180910390fd5b60046000866000191660001916815260200190815260200160002060003373ffffffffffffffffffffffffffffffffffffffff1673ffffffffffffffffffffffffffffffffffffffff1681526020019081526020016000205460016000876000191660001916815260200190815260200160002060050160008282540192505081905550600160056000876000191660001916815260200190815260200160002060003373ffffffffffffffffffffffffffffffffffffffff1673ffffffffffffffffffffffffffffffffffffffff16815260200190815260200160002060006101000a81548160ff021916908315150217905550600460008660001916600019168152602001908152602001600020600060016000886000191660001916815260200190815260200160002060000160009054906101000a900473ffffffffffffffffffffffffffffffffffffffff1673ffffffffffffffffffffffffffffffffffffffff1673ffffffffffffffffffffffffffffffffffffffff1681526020019081526020016000205460016000876000191660001916815260200190815260200160002060040154039350836064600160008860001916600019168152602001908152602001600020600501540281151561310257fe5b049250604b60ff168310151561322657600760009054906101000a900473ffffffffffffffffffffffffffffffffffffffff1673ffffffffffffffffffffffffffffffffffffffff166384ac33ec60016000886000191660001916815260200190815260200160002060060160009054906101000a900473ffffffffffffffffffffffffffffffffffffffff166040518263ffffffff167c0100000000000000000000000000000000000000000000000000000000028152600401808273ffffffffffffffffffffffffffffffffffffffff1673ffffffffffffffffffffffffffffffffffffffff168152602001915050600060405180830381600087803b15801561320d57600080fd5b505af1158015613221573d6000803e3d6000fd5b505050505b5050505050565b600081831061323c578161323e565b825b905092915050565b6000818301905082811015151561325957fe5b80905092915050565b600082821115151561327057fe5b818303905092915050565b61010060405190810160405280600073ffffffffffffffffffffffffffffffffffffffff16815260200160608152602001600060ff168152602001600081526020016000815260200160008152602001600073ffffffffffffffffffffffffffffffffffffffff168152602001600081525090565b828054600181600116156101000203166002900490600052602060002090601f016020900481019282601f1061333157805160ff191683800117855561335f565b8280016001018555821561335f579182015b8281111561335e578251825591602001919060010190613343565b5b50905061336c9190613370565b5090565b61339291905b8082111561338e576000816000905550600101613376565b5090565b905600a165627a7a72305820164d04472db352f9bc1efd9a94b5caf252597b679a8d9ef6764f6c38d155e24c0029",
  "source": "pragma solidity ^0.4.24;\n\nimport \"openzeppelin-solidity/contracts/token/ERC20/ERC20.sol\";\nimport \"openzeppelin-solidity/contracts/math/SafeMath.sol\";\nimport \"openzeppelin-solidity/contracts/math/Math.sol\";\n\nimport \"republic-sol/contracts/RepublicToken.sol\";\nimport \"republic-sol/contracts/DarknodeRegistry.sol\";\nimport \"republic-sol/contracts/DarknodeRewardVault.sol\";\n\ncontract NodePool {\n    using SafeMath for uint256;\n\n    address constant public ETHEREUM = 0xEeeeeEeeeEeEeeEeEeEeeEEEeeeeEeeeeeeeEEeE;\n\n    enum PoolStatus {\n        None,\n        Proposed,\n        CanRegister,\n        Registered,\n        CanDeregister,\n        Deregistered\n    }\n\n    struct Pool {\n        address proposer;\n        string name;\n        uint8 operationFees;\n        uint256 minimumDuration;\n        uint256 totalAmountFunded;\n        uint256 deregistrationVotes;\n        address darknodeID;\n        uint256 registeredAt;\n    }\n\n    bytes32[] public pools;\n    mapping(bytes32 => Pool) public poolDetails;\n\n    mapping(bytes32 => mapping(address => uint256)) private totalFees;\n    mapping(bytes32 => mapping(address => mapping(address => uint256))) public collectedFees;\n\n    uint8 constant public VOTES_FOR_DEREGISTRATION = 75;\n    \n    // Amount funded (indexed by [darknodeID][userAddress])\n    mapping(bytes32 => mapping(address => uint256)) public amountFunded;\n    mapping(bytes32 => mapping(address => bool)) public votingRecord;\n\n    RepublicToken public ren;\n    DarknodeRegistry public dnr;\n    DarknodeRewardVault public rewardVault;\n\n    constructor(\n        RepublicToken _renAddress,\n        DarknodeRegistry _dnrAddress,\n        DarknodeRewardVault _rewardVaultAddress\n    ) public {\n        ren = _renAddress;\n        dnr = _dnrAddress;\n        rewardVault = _rewardVaultAddress;\n    }\n\n    modifier onlyWithStatus(bytes32 _poolID, PoolStatus status) {\n        require(poolStatus(_poolID) == status, \"invalid pool status\");\n        _;\n    }\n\n    modifier onlyWithStatuses(bytes32 _poolID, PoolStatus status1, PoolStatus status2) {\n        PoolStatus actualStatus = poolStatus(_poolID);\n        require(actualStatus == status1 || actualStatus == status2, \"invalid pool status\");\n        _;\n    }\n\n    modifier notProposer(bytes32 _poolID) {\n        require(poolDetails[_poolID].proposer != msg.sender, \"not permitted for proposer\");\n        _;\n    }\n\n    modifier onlyProposer(bytes32 _poolID) {\n        require(poolDetails[_poolID].proposer == msg.sender, \"only permitted for proposer\");\n        _;\n    }\n\n    // TODO: Move description off-chain to save space/cost.\n    function proposePool(bytes32 _poolID, string _name, uint8 _operationFees, uint256 _minimumDuration, uint256 _amount)\n    external onlyWithStatus(_poolID, PoolStatus.None)\n    {\n        require(_operationFees <= 100, \"operation fees must be a percentage\");\n        Pool memory pool = Pool({\n            proposer: msg.sender,\n            name: _name,\n            operationFees: _operationFees,\n            minimumDuration: _minimumDuration,\n            totalAmountFunded: 0,\n            deregistrationVotes: 0,\n            darknodeID: 0x0,\n            registeredAt: 0\n        });\n        pools.push(_poolID);\n        poolDetails[_poolID] = pool;\n\n        fundPool(_poolID, _amount);\n    }\n\n    function fundPool(bytes32 _poolID, uint256 _amount)\n    public onlyWithStatus(_poolID, PoolStatus.Proposed)\n    {\n        address investor = msg.sender;\n\n        uint256 remaining = minimumBond() - poolDetails[_poolID].totalAmountFunded;\n        uint256 minimum = Math.min256(remaining, _amount);\n        require(minimum > 0, \"already fully funded\");\n\n        require(ren.transferFrom(investor, this, minimum), \"amount trasfer failed\");\n        poolDetails[_poolID].totalAmountFunded = poolDetails[_poolID].totalAmountFunded.add(minimum);\n        amountFunded[_poolID][investor] = amountFunded[_poolID][investor].add(minimum);\n    }\n\n    function withdrawFunds(bytes32 _poolID, uint256 _amount)\n    external\n    notProposer(_poolID)\n    {\n        address investor = msg.sender;\n        PoolStatus status = poolStatus(_poolID);\n\n        if (status == PoolStatus.Proposed || status == PoolStatus.CanRegister) {\n            require(investor != poolDetails[_poolID].proposer, \"proposer can't withdraw\");\n        } else if (status == PoolStatus.CanDeregister) {\n            dnr.deregister(poolDetails[_poolID].darknodeID);\n        } else if (status == PoolStatus.Registered || status == PoolStatus.None) {\n            revert(\"invalid status\");\n        }\n\n        poolDetails[_poolID].totalAmountFunded = poolDetails[_poolID].totalAmountFunded.sub(_amount);\n        amountFunded[_poolID][investor] = amountFunded[_poolID][investor].sub(_amount);\n\n        require(ren.transfer(investor, _amount), \"amount trasfer failed\");\n    }\n\n    function registerPool(bytes32 _poolID, address _darknodeID, bytes _publicKey)\n    external\n    onlyProposer(_poolID)\n    onlyWithStatus(_poolID, PoolStatus.CanRegister)\n    {\n        uint256 amount = poolDetails[_poolID].totalAmountFunded;\n        require(ren.approve(dnr, amount), \"bond approval failed\");\n        dnr.register(_darknodeID, _publicKey, amount);\n        poolDetails[_poolID].darknodeID = _darknodeID;\n        poolDetails[_poolID].registeredAt = now;\n    }\n\n    function poolStatus(bytes32 _poolID) public view returns (PoolStatus) {\n        if (poolDetails[_poolID].proposer == 0x0) {\n            return PoolStatus.None;\n        }\n\n        if (poolDetails[_poolID].registeredAt == 0) {\n            // Hasn't been registered yet\n\n            return (poolDetails[_poolID].totalAmountFunded < minimumBond()) ?\n                PoolStatus.Proposed :\n                PoolStatus.CanRegister;\n        } else {\n            // Has been registered\n\n            bool pendingRegistration = dnr.isPendingRegistration(poolDetails[_poolID].darknodeID);\n            bool registered = dnr.isDeregisterable(poolDetails[_poolID].darknodeID);\n            bool timePassed = now >= (poolDetails[_poolID].registeredAt + poolDetails[_poolID].minimumDuration);\n\n            if (pendingRegistration || (registered && !timePassed)) {\n                return PoolStatus.Registered;\n            } else if (registered && timePassed) {\n                return PoolStatus.CanDeregister;\n            } else {\n                return PoolStatus.Deregistered;\n            }\n        }\n    }\n\n    /// @notice Votes to deregister a darknode. The darknode will not be deregisterd\n    /// until 75% of the contribution amount has opted to deregister.\n    function voteToDeregister(bytes32 _poolID)\n    external\n    onlyWithStatus(_poolID, PoolStatus.Registered)\n    {\n        require(!votingRecord[_poolID][msg.sender], \"already voted\");\n        poolDetails[_poolID].deregistrationVotes += amountFunded[_poolID][msg.sender];\n        votingRecord[_poolID][msg.sender] = true;\n        // require 75% of the votes to deregister to be achieved\n        uint256 total = poolDetails[_poolID].totalAmountFunded - amountFunded[_poolID][poolDetails[_poolID].proposer];\n        uint256 votedPercent = poolDetails[_poolID].deregistrationVotes * 100 / total;\n        if (votedPercent >= VOTES_FOR_DEREGISTRATION) {\n            dnr.deregister(poolDetails[_poolID].darknodeID);\n        }\n    }\n\n    function minimumBond() public view returns (uint256) {\n        return dnr.minimumBond();\n    }\n\n    function getTotalFees(bytes32 _poolID, ERC20 _token) public view returns (uint256) {\n        address darknodeID = poolDetails[_poolID].darknodeID;\n        uint256 feesInRewardVault = rewardVault.darknodeBalances(darknodeID, _token);\n        uint256 feesInContract = totalFees[_poolID][_token];\n\n        return feesInRewardVault + feesInContract;\n    }\n\n    function feeShare(bytes32 _poolID, ERC20 _token, address _withdrawer) public view returns (uint256) {\n        uint256 percentage = ((amountFunded[_poolID][_withdrawer] * 100) / poolDetails[_poolID].totalAmountFunded);\n        // Subtract fees\n\n        if (_withdrawer == poolDetails[_poolID].proposer) {\n            uint256 fromOthers = ((poolDetails[_poolID].totalAmountFunded - amountFunded[_poolID][_withdrawer]) * 100) / poolDetails[_poolID].totalAmountFunded;\n            percentage = percentage + ((fromOthers * poolDetails[_poolID].operationFees) / 100);\n        } else {\n            percentage = (percentage * (100 - poolDetails[_poolID].operationFees)) / 100;\n        }\n\n        uint256 total = (getTotalFees(_poolID, _token) * percentage) / 100;\n        uint256 collected = collectedFees[_poolID][_token][_withdrawer];\n        uint256 share = total - collected;\n\n        return share;\n    }\n\n    function withdrawFees(bytes32 _poolID, ERC20 _token) external {\n        address darknodeID = poolDetails[_poolID].darknodeID;\n\n        uint256 amount = rewardVault.darknodeBalances(darknodeID, _token);\n        if (amount > 0) {\n            rewardVault.withdraw(darknodeID, _token);\n            totalFees[_poolID][_token] = totalFees[_poolID][_token].add(amount);\n        }\n\n        address withdrawer = msg.sender;\n        uint256 share = feeShare(_poolID, _token, withdrawer);\n\n        collectedFees[_poolID][_token][withdrawer] = collectedFees[_poolID][_token][withdrawer].add(share);\n\n        if (address(_token) == ETHEREUM) {\n            withdrawer.transfer(share);\n        } else {\n            require(_token.transfer(withdrawer, share), \"token transfer failed\");\n        }\n    }\n}",
  "sourcePath": "/home/noah/github/republicprotocol/node-pool-sol/contracts/NodePool.sol",
  "compiler": {
    "name": "solc",
    "version": "0.4.24+commit.e67f0147.Emscripten.clang"
  },
  "schemaVersion": "2.0.1",
  "updatedAt": "2018-08-19T14:18:53.035Z"
}